{
  "contractName": "Voting",
  "abi": [
    {
      "inputs": [],
      "stateMutability": "nonpayable",
      "type": "constructor"
    },
    {
      "anonymous": false,
      "inputs": [
        {
          "indexed": false,
          "internalType": "uint256",
          "name": "electionId",
          "type": "uint256"
        },
        {
          "indexed": false,
          "internalType": "string",
          "name": "title",
          "type": "string"
        }
      ],
      "name": "ElectionCreated",
      "type": "event"
    },
    {
      "anonymous": false,
      "inputs": [
        {
          "indexed": false,
          "internalType": "uint256",
          "name": "electionId",
          "type": "uint256"
        },
        {
          "indexed": true,
          "internalType": "address",
          "name": "voter",
          "type": "address"
        },
        {
          "indexed": false,
          "internalType": "uint256",
          "name": "candidateId",
          "type": "uint256"
        }
      ],
      "name": "Voted",
      "type": "event"
    },
    {
      "inputs": [],
      "name": "admin",
      "outputs": [
        {
          "internalType": "address",
          "name": "",
          "type": "address"
        }
      ],
      "stateMutability": "view",
      "type": "function",
      "constant": true
    },
    {
      "inputs": [
        {
          "internalType": "uint256",
          "name": "",
          "type": "uint256"
        }
      ],
      "name": "elections",
      "outputs": [
        {
          "internalType": "string",
          "name": "title",
          "type": "string"
        },
        {
          "internalType": "bool",
          "name": "active",
          "type": "bool"
        }
      ],
      "stateMutability": "view",
      "type": "function",
      "constant": true
    },
    {
      "inputs": [
        {
          "internalType": "string",
          "name": "title",
          "type": "string"
        },
        {
          "internalType": "string[]",
          "name": "candidateNames",
          "type": "string[]"
        }
      ],
      "name": "createElection",
      "outputs": [],
      "stateMutability": "nonpayable",
      "type": "function"
    },
    {
      "inputs": [
        {
          "internalType": "uint256",
          "name": "electionId",
          "type": "uint256"
        },
        {
          "internalType": "uint256",
          "name": "candidateId",
          "type": "uint256"
        }
      ],
      "name": "vote",
      "outputs": [],
      "stateMutability": "nonpayable",
      "type": "function"
    },
    {
      "inputs": [
        {
          "internalType": "uint256",
          "name": "electionId",
          "type": "uint256"
        },
        {
          "internalType": "address",
          "name": "voter",
          "type": "address"
        }
      ],
      "name": "hasVoted",
      "outputs": [
        {
          "internalType": "bool",
          "name": "",
          "type": "bool"
        }
      ],
      "stateMutability": "view",
      "type": "function",
      "constant": true
    },
    {
      "inputs": [
        {
          "internalType": "uint256",
          "name": "electionId",
          "type": "uint256"
        }
      ],
      "name": "getCandidates",
      "outputs": [
        {
          "components": [
            {
              "internalType": "string",
              "name": "name",
              "type": "string"
            },
            {
              "internalType": "uint256",
              "name": "voteCount",
              "type": "uint256"
            }
          ],
          "internalType": "struct Voting.Candidate[]",
          "name": "",
          "type": "tuple[]"
        }
      ],
      "stateMutability": "view",
      "type": "function",
      "constant": true
    },
    {
      "inputs": [
        {
          "internalType": "uint256",
          "name": "electionId",
          "type": "uint256"
        }
      ],
      "name": "closeElection",
      "outputs": [],
      "stateMutability": "nonpayable",
      "type": "function"
    },
    {
      "inputs": [],
      "name": "getElections",
      "outputs": [
        {
          "components": [
            {
              "internalType": "string",
              "name": "title",
              "type": "string"
            },
            {
              "components": [
                {
                  "internalType": "string",
                  "name": "name",
                  "type": "string"
                },
                {
                  "internalType": "uint256",
                  "name": "voteCount",
                  "type": "uint256"
                }
              ],
              "internalType": "struct Voting.Candidate[]",
              "name": "candidates",
              "type": "tuple[]"
            },
            {
              "internalType": "address[]",
              "name": "voters",
              "type": "address[]"
            },
            {
              "internalType": "bool",
              "name": "active",
              "type": "bool"
            }
          ],
          "internalType": "struct Voting.Election[]",
          "name": "",
          "type": "tuple[]"
        }
      ],
      "stateMutability": "view",
      "type": "function",
      "constant": true
    }
  ],
  "bytecode": "0x608060405234801561001057600080fd5b50336000806101000a81548173ffffffffffffffffffffffffffffffffffffffff021916908373ffffffffffffffffffffffffffffffffffffffff160217905550611c2e806100606000396000f3fe608060405234801561001057600080fd5b50600436106100885760003560e01c80635e6fef011161005b5780635e6fef01146101255780639f3a7f5214610156578063b384abef14610174578063f851a4401461019057610088565b806309e33d071461008d578063349813b2146100a95780633e39a7a5146100c557806343859632146100f5575b600080fd5b6100a760048036038101906100a29190611106565b6101ae565b005b6100c360048036038101906100be919061109a565b6102ea565b005b6100df60048036038101906100da9190611106565b6104eb565b6040516100ec919061169f565b60405180910390f35b61010f600480360381019061010a919061112f565b610678565b60405161011c91906116e3565b60405180910390f35b61013f600480360381019061013a9190611106565b6107f8565b60405161014d9291906116fe565b60405180910390f35b61015e6108c1565b60405161016b91906116c1565b60405180910390f35b61018e6004803603810190610189919061116b565b610b56565b005b610198610eba565b6040516101a59190611684565b60405180910390f35b60008054906101000a900473ffffffffffffffffffffffffffffffffffffffff1673ffffffffffffffffffffffffffffffffffffffff163373ffffffffffffffffffffffffffffffffffffffff161461023c576040517f08c379a00000000000000000000000000000000000000000000000000000000081526004016102339061174e565b60405180910390fd5b6001805490508110610283576040517f08c379a000000000000000000000000000000000000000000000000000000000815260040161027a9061172e565b60405180910390fd5b6000600182815481106102bf577f4e487b7100000000000000000000000000000000000000000000000000000000600052603260045260246000fd5b906000526020600020906004020160030160006101000a81548160ff02191690831515021790555050565b60008054906101000a900473ffffffffffffffffffffffffffffffffffffffff1673ffffffffffffffffffffffffffffffffffffffff163373ffffffffffffffffffffffffffffffffffffffff1614610378576040517f08c379a000000000000000000000000000000000000000000000000000000000815260040161036f9061174e565b60405180910390fd5b6000600180816001815401808255809150500390600052602060002090600402019050828160000190805190602001906103b3929190610ede565b5060018160030160006101000a81548160ff02191690831515021790555060005b825181101561049c57816001016040518060400160405280858481518110610425577f4e487b7100000000000000000000000000000000000000000000000000000000600052603260045260246000fd5b6020026020010151815260200160008152509080600181540180825580915050600190039060005260206000209060020201600090919091909150600082015181600001908051906020019061047c929190610ede565b50602082015181600101555050808061049490611ae3565b9150506103d4565b507f52be7c4e77b4de76b7607d621492061fe13b58597e72dfb5e51ab8f6187ed141600180805490506104cf91906119f3565b846040516104de9291906117ce565b60405180910390a1505050565b60606001805490508210610534576040517f08c379a000000000000000000000000000000000000000000000000000000000815260040161052b9061172e565b60405180910390fd5b6001828154811061056e577f4e487b7100000000000000000000000000000000000000000000000000000000600052603260045260246000fd5b9060005260206000209060040201600101805480602002602001604051908101604052809291908181526020016000905b8282101561066d57838290600052602060002090600202016040518060400160405290816000820180546105d290611ab1565b80601f01602080910402602001604051908101604052809291908181526020018280546105fe90611ab1565b801561064b5780601f106106205761010080835404028352916020019161064b565b820191906000526020600020905b81548152906001019060200180831161062e57829003601f168201915b505050505081526020016001820154815250508152602001906001019061059f565b505050509050919050565b600080600184815481106106b5577f4e487b7100000000000000000000000000000000000000000000000000000000600052603260045260246000fd5b906000526020600020906004020160020180548060200260200160405190810160405280929190818152602001828054801561074657602002820191906000526020600020905b8160009054906101000a900473ffffffffffffffffffffffffffffffffffffffff1673ffffffffffffffffffffffffffffffffffffffff16815260200190600101908083116106fc575b5050505050905060005b81518110156107eb578373ffffffffffffffffffffffffffffffffffffffff168282815181106107a9577f4e487b7100000000000000000000000000000000000000000000000000000000600052603260045260246000fd5b602002602001015173ffffffffffffffffffffffffffffffffffffffff1614156107d8576001925050506107f2565b80806107e390611ae3565b915050610750565b5060009150505b92915050565b6001818154811061080857600080fd5b906000526020600020906004020160009150905080600001805461082b90611ab1565b80601f016020809104026020016040519081016040528092919081815260200182805461085790611ab1565b80156108a45780601f10610879576101008083540402835291602001916108a4565b820191906000526020600020905b81548152906001019060200180831161088757829003601f168201915b5050505050908060030160009054906101000a900460ff16905082565b60606001805480602002602001604051908101604052809291908181526020016000905b82821015610b4d578382906000526020600020906004020160405180608001604052908160008201805461091890611ab1565b80601f016020809104026020016040519081016040528092919081815260200182805461094490611ab1565b80156109915780601f1061096657610100808354040283529160200191610991565b820191906000526020600020905b81548152906001019060200180831161097457829003601f168201915b5050505050815260200160018201805480602002602001604051908101604052809291908181526020016000905b82821015610a8d57838290600052602060002090600202016040518060400160405290816000820180546109f290611ab1565b80601f0160208091040260200160405190810160405280929190818152602001828054610a1e90611ab1565b8015610a6b5780601f10610a4057610100808354040283529160200191610a6b565b820191906000526020600020905b815481529060010190602001808311610a4e57829003601f168201915b50505050508152602001600182015481525050815260200190600101906109bf565b50505050815260200160028201805480602002602001604051908101604052809291908181526020018280548015610b1a57602002820191906000526020600020905b8160009054906101000a900473ffffffffffffffffffffffffffffffffffffffff1673ffffffffffffffffffffffffffffffffffffffff1681526020019060010190808311610ad0575b505050505081526020016003820160009054906101000a900460ff161515151581525050815260200190600101906108e5565b50505050905090565b6001805490508210610b9d576040517f08c379a0000000000000000000000000000000000000000000000000000000008152600401610b949061172e565b60405180910390fd5b60018281548110610bd7577f4e487b7100000000000000000000000000000000000000000000000000000000600052603260045260246000fd5b906000526020600020906004020160030160009054906101000a900460ff16610c35576040517f08c379a0000000000000000000000000000000000000000000000000000000008152600401610c2c9061176e565b60405180910390fd5b610c3f8233610678565b15610c7f576040517f08c379a0000000000000000000000000000000000000000000000000000000008152600401610c76906117ae565b60405180910390fd5b60018281548110610cb9577f4e487b7100000000000000000000000000000000000000000000000000000000600052603260045260246000fd5b9060005260206000209060040201600101805490508110610d0f576040517f08c379a0000000000000000000000000000000000000000000000000000000008152600401610d069061178e565b60405180910390fd5b60018281548110610d49577f4e487b7100000000000000000000000000000000000000000000000000000000600052603260045260246000fd5b9060005260206000209060040201600201339080600181540180825580915050600190039060005260206000200160009091909190916101000a81548173ffffffffffffffffffffffffffffffffffffffff021916908373ffffffffffffffffffffffffffffffffffffffff1602179055506001808381548110610df6577f4e487b7100000000000000000000000000000000000000000000000000000000600052603260045260246000fd5b90600052602060002090600402016001018281548110610e3f577f4e487b7100000000000000000000000000000000000000000000000000000000600052603260045260246000fd5b90600052602060002090600202016001016000828254610e5f919061199d565b925050819055503373ffffffffffffffffffffffffffffffffffffffff167f1abe610cf2bf87e57dcc1181fcf5ac0934e843d8344ab9eed6e86c799f62585e8383604051610eae9291906117fe565b60405180910390a25050565b60008054906101000a900473ffffffffffffffffffffffffffffffffffffffff1681565b828054610eea90611ab1565b90600052602060002090601f016020900481019282610f0c5760008555610f53565b82601f10610f2557805160ff1916838001178555610f53565b82800160010185558215610f53579182015b82811115610f52578251825591602001919060010190610f37565b5b509050610f609190610f64565b5090565b5b80821115610f7d576000816000905550600101610f65565b5090565b6000610f94610f8f84611858565b611827565b9050808382526020820190508260005b85811015610fd45781358501610fba888261105b565b845260208401935060208301925050600181019050610fa4565b5050509392505050565b6000610ff1610fec84611884565b611827565b90508281526020810184848401111561100957600080fd5b611014848285611a6f565b509392505050565b60008135905061102b81611bca565b92915050565b600082601f83011261104257600080fd5b8135611052848260208601610f81565b91505092915050565b600082601f83011261106c57600080fd5b813561107c848260208601610fde565b91505092915050565b60008135905061109481611be1565b92915050565b600080604083850312156110ad57600080fd5b600083013567ffffffffffffffff8111156110c757600080fd5b6110d38582860161105b565b925050602083013567ffffffffffffffff8111156110f057600080fd5b6110fc85828601611031565b9150509250929050565b60006020828403121561111857600080fd5b600061112684828501611085565b91505092915050565b6000806040838503121561114257600080fd5b600061115085828601611085565b92505060206111618582860161101c565b9150509250929050565b6000806040838503121561117e57600080fd5b600061118c85828601611085565b925050602061119d85828601611085565b9150509250929050565b60006111b383836111e7565b60208301905092915050565b60006111cb83836115b8565b905092915050565b60006111df83836115f5565b905092915050565b6111f081611a27565b82525050565b6111ff81611a27565b82525050565b6000611210826118e4565b61121a8185611937565b9350611225836118b4565b8060005b8381101561125657815161123d88826111a7565b975061124883611910565b925050600181019050611229565b5085935050505092915050565b600061126e826118ef565b6112788185611948565b93508360208202850161128a856118c4565b8060005b858110156112c657848403895281516112a785826111bf565b94506112b28361191d565b925060208a0199505060018101905061128e565b50829750879550505050505092915050565b60006112e3826118ef565b6112ed8185611959565b9350836020820285016112ff856118c4565b8060005b8581101561133b578484038952815161131c85826111bf565b94506113278361191d565b925060208a01995050600181019050611303565b50829750879550505050505092915050565b6000611358826118fa565b611362818561196a565b935083602082028501611374856118d4565b8060005b858110156113b0578484038952815161139185826111d3565b945061139c8361192a565b925060208a01995050600181019050611378565b50829750879550505050505092915050565b6113cb81611a39565b82525050565b6113da81611a39565b82525050565b60006113eb82611905565b6113f5818561197b565b9350611405818560208601611a7e565b61140e81611bb9565b840191505092915050565b600061142482611905565b61142e818561198c565b935061143e818560208601611a7e565b61144781611bb9565b840191505092915050565b600061145f60138361198c565b91507f496e76616c696420656c656374696f6e204944000000000000000000000000006000830152602082019050919050565b600061149f60228361198c565b91507f4f6e6c792061646d696e2063616e20706572666f726d2074686973206163746960008301527f6f6e0000000000000000000000000000000000000000000000000000000000006020830152604082019050919050565b600061150560168361198c565b91507f456c656374696f6e206973206e6f7420616374697665000000000000000000006000830152602082019050919050565b600061154560148361198c565b91507f496e76616c69642063616e6469646174652049440000000000000000000000006000830152602082019050919050565b600061158560168361198c565b91507f596f75206861766520616c726561647920766f746564000000000000000000006000830152602082019050919050565b600060408301600083015184820360008601526115d582826113e0565b91505060208301516115ea6020860182611666565b508091505092915050565b6000608083016000830151848203600086015261161282826113e0565b9150506020830151848203602086015261162c8282611263565b915050604083015184820360408601526116468282611205565b915050606083015161165b60608601826113c2565b508091505092915050565b61166f81611a65565b82525050565b61167e81611a65565b82525050565b600060208201905061169960008301846111f6565b92915050565b600060208201905081810360008301526116b981846112d8565b905092915050565b600060208201905081810360008301526116db818461134d565b905092915050565b60006020820190506116f860008301846113d1565b92915050565b600060408201905081810360008301526117188185611419565b905061172760208301846113d1565b9392505050565b6000602082019050818103600083015261174781611452565b9050919050565b6000602082019050818103600083015261176781611492565b9050919050565b60006020820190508181036000830152611787816114f8565b9050919050565b600060208201905081810360008301526117a781611538565b9050919050565b600060208201905081810360008301526117c781611578565b9050919050565b60006040820190506117e36000830185611675565b81810360208301526117f58184611419565b90509392505050565b60006040820190506118136000830185611675565b6118206020830184611675565b9392505050565b6000604051905081810181811067ffffffffffffffff8211171561184e5761184d611b8a565b5b8060405250919050565b600067ffffffffffffffff82111561187357611872611b8a565b5b602082029050602081019050919050565b600067ffffffffffffffff82111561189f5761189e611b8a565b5b601f19601f8301169050602081019050919050565b6000819050602082019050919050565b6000819050602082019050919050565b6000819050602082019050919050565b600081519050919050565b600081519050919050565b600081519050919050565b600081519050919050565b6000602082019050919050565b6000602082019050919050565b6000602082019050919050565b600082825260208201905092915050565b600082825260208201905092915050565b600082825260208201905092915050565b600082825260208201905092915050565b600082825260208201905092915050565b600082825260208201905092915050565b60006119a882611a65565b91506119b383611a65565b9250827fffffffffffffffffffffffffffffffffffffffffffffffffffffffffffffffff038211156119e8576119e7611b2c565b5b828201905092915050565b60006119fe82611a65565b9150611a0983611a65565b925082821015611a1c57611a1b611b2c565b5b828203905092915050565b6000611a3282611a45565b9050919050565b60008115159050919050565b600073ffffffffffffffffffffffffffffffffffffffff82169050919050565b6000819050919050565b82818337600083830152505050565b60005b83811015611a9c578082015181840152602081019050611a81565b83811115611aab576000848401525b50505050565b60006002820490506001821680611ac957607f821691505b60208210811415611add57611adc611b5b565b5b50919050565b6000611aee82611a65565b91507fffffffffffffffffffffffffffffffffffffffffffffffffffffffffffffffff821415611b2157611b20611b2c565b5b600182019050919050565b7f4e487b7100000000000000000000000000000000000000000000000000000000600052601160045260246000fd5b7f4e487b7100000000000000000000000000000000000000000000000000000000600052602260045260246000fd5b7f4e487b7100000000000000000000000000000000000000000000000000000000600052604160045260246000fd5b6000601f19601f8301169050919050565b611bd381611a27565b8114611bde57600080fd5b50565b611bea81611a65565b8114611bf557600080fd5b5056fea2646970667358221220bf3033d20eebe3a73223caa9b552b9cf37ba55afa479d336b4c8037503c45ade64736f6c63430008000033",
  "immutableReferences": {},
  "source": "// SPDX-License-Identifier: MIT\r\npragma solidity ^0.8.0;\r\n\r\ncontract Voting {\r\n    struct Candidate {\r\n        string name;\r\n        uint256 voteCount;\r\n    }\r\n\r\n    struct Election {\r\n        string title;\r\n        Candidate[] candidates;\r\n        address[] voters;\r\n        bool active;\r\n    }\r\n\r\n    address public admin;\r\n    Election[] public elections;\r\n\r\n    event ElectionCreated(uint256 electionId, string title);\r\n    event Voted(uint256 electionId, address indexed voter, uint256 candidateId);\r\n\r\n    modifier onlyAdmin() {\r\n        require(msg.sender == admin, \"Only admin can perform this action\");\r\n        _;\r\n    }\r\n\r\n    constructor() {\r\n        admin = msg.sender;\r\n    }\r\n\r\n    function createElection(\r\n        string memory title,\r\n        string[] memory candidateNames\r\n    ) public onlyAdmin {\r\n        Election storage newElection = elections.push();\r\n        newElection.title = title;\r\n        newElection.active = true;\r\n\r\n        for (uint256 i = 0; i < candidateNames.length; i++) {\r\n            newElection.candidates.push(Candidate(candidateNames[i], 0));\r\n        }\r\n        emit ElectionCreated(elections.length - 1, title);\r\n    }\r\n\r\n    function vote(uint256 electionId, uint256 candidateId) public {\r\n        require(electionId < elections.length, \"Invalid election ID\");\r\n        require(elections[electionId].active, \"Election is not active\");\r\n        require(!hasVoted(electionId, msg.sender), \"You have already voted\");\r\n        require(\r\n            candidateId < elections[electionId].candidates.length,\r\n            \"Invalid candidate ID\"\r\n        );\r\n\r\n        elections[electionId].voters.push(msg.sender); // Track the voter address\r\n        elections[electionId].candidates[candidateId].voteCount += 1;\r\n\r\n        emit Voted(electionId, msg.sender, candidateId);\r\n    }\r\n\r\n    function hasVoted(\r\n        uint256 electionId,\r\n        address voter\r\n    ) public view returns (bool) {\r\n        address[] memory voters = elections[electionId].voters;\r\n        for (uint256 i = 0; i < voters.length; i++) {\r\n            if (voters[i] == voter) {\r\n                return true;\r\n            }\r\n        }\r\n        return false;\r\n    }\r\n\r\n    function getCandidates(\r\n        uint256 electionId\r\n    ) public view returns (Candidate[] memory) {\r\n        require(electionId < elections.length, \"Invalid election ID\");\r\n        return elections[electionId].candidates;\r\n    }\r\n\r\n    function closeElection(uint256 electionId) public onlyAdmin {\r\n        require(electionId < elections.length, \"Invalid election ID\");\r\n        elections[electionId].active = false;\r\n    }\r\n\r\n    function getElections() public view returns (Election[] memory) {\r\n        return elections;\r\n    }\r\n}\r\n",
  "sourcePath": "C:\\Users\\admin\\Desktop\\myVotingDapp\\contracts\\Voting.sol",
  "compiler": {
    "name": "solc",
    "version": "0.8.0+commit.c7dfd78e.Emscripten.clang"
  },
  "schemaVersion": "3.4.16",
  "updatedAt": "2025-01-30T09:11:24.792Z",
  "networkType": "ethereum",
  "devdoc": {
    "kind": "dev",
    "methods": {},
    "version": 1
  },
  "userdoc": {
    "kind": "user",
    "methods": {},
    "version": 1
  }
}